:1000000002308A008C2A00000A108A100A11820726
:100010004134443443343A3425344C347534203438
:100020002D3400341F1383161F149F141F119F11AA
:100030001F169F161F1383129F171F148316010884
:10004000C73908388100831290010030A100920066
:10005000003083169200073083129900831605083A
:10006000850006308312A000A00B34280000190878
:100070008C118316990171308F000F088312A02A0A
:100080008E30A0002E08A1002D08A200A301A10817
:10009000031D54282208A100A2010830A002A108D3
:1000A000031D5428A0015C280310A11B5B28A20D8E
:1000B000A10DA0035428A113BE2A38080319CD2886
:1000C000C0003C080319CD28C00703186E287F30F4
:1000D000C002031CCD280319CD2872288130C00727
:1000E0000318CD284008A000A101A201A3013908EE
:1000F000C400C4173A08C3003B08C2001830C0004F
:10010000C101421C9B283F08A307031C8D28A20A9B
:10011000031D8D28A10A0319C1173E08A207031C5D
:100120009428A10A0319C1173D08BA00BA173A0862
:10013000A1070318C117C10DA10CA20CA30CC40C7C
:10014000C30CC20C0310C00B80280130A007031899
:10015000CD28A11BB228C40DA30DA20DA10DA00393
:100160000319CD28C41FC328A30A031DC328A20A4C
:10017000031DC328A10A031DC328A10CA20CA30CB4
:10018000A00A0319CD283908C1003D08C106C11FC6
:10019000CB28A117D128A113D128A001A101A20128
:1001A000A301080083160511831205110830A10070
:1001B000D9280000A117EA28A113B80C03180515C7
:1001C000031C05112117EA282113A10BDD28E828BB
:1001D000000005153F308400840BEC280000A11BB3
:1001E000DC28211BE42808000408B4002E0EF03897
:1001F000B000B007E23EB100323EB3002E080F3926
:10020000B107B107B307E93EB200B207B2072D0E3E
:100210000F39B207B307B20DB30DB309B30D2D08F3
:100220000F39B307B00D0730AF000A30B307B20380
:10023000031C1629B207B103031C1A29B107B00326
:10024000031C1E29B007AF03031C22292F30840092
:10025000073034053413840733300402031934178C
:100260000008A000031D3C29341B3C29341A4829EE
:10027000B4193C2920303F29B41534123030A0077E
:10028000AE010408AD002008B800D2202D0884007B
:10029000840A341F2C29E92A83185029403084000D
:1002A000A001A101A201A301C001C101C201C301BA
:1002B0003F083E043D043C0403198E292030C4004D
:1002C0000310B80DB90DBA0DBB0DC00DC10DC20D97
:1002D000C30D3F084302031D77293E084202031D58
:1002E00077293D084102031D77293C084002031C81
:1002F00088293C08C0023D08031C3D0FC1023E088E
:10030000031C3E0FC2023F08031C3F0FC30203142D
:10031000A00DA10DA20DA30DC40B60294008800003
:10032000840A41088000840A42088000840A430845
:10033000800008000408B2003108B3000319B9298D
:100340003008BB002F08BA002E08B9002D08B800ED
:10035000BF01BE012030BD008230BC005D202308FB
:10036000B0002208AF002108AE002008AD00B30B9A
:10037000A0293008BB002F08BA002E08B9002D08AC
:10038000B8003808B63CB800A3013908BC00B9175A
:100390000310B90CBA0CBB0CA30CA20CA10CA00C42
:1003A000B80BC829BC1FDF29A009A109A209A3090C
:1003B000A00A0319A10A0319A20A0319A30A230810
:1003C000B0002208AF002108AE002008AD00B01F29
:1003D000F629B203B216AD09AE09AF09B009AD0AEC
:1003E0000319AE0A0319AF0A0319B00A3B30B7006C
:1003F0009A30B600CA30B500B4010A30B3003108F3
:100400000319B20A83142D3084003008BB002F0872
:10041000BA002E08B9002D08B8003708BF0036080A
:10042000BE003508BD003408BC004C212108A008DE
:10043000031D2D2A310A330203192D2A320803190C
:100440002F2A0F3933020319272A03185F2AB21BF8
:100450005F2A321B2F2A20305B2A2030B205B21EC1
:100460003D2AB2123108031DB2032008B2002D301C
:10047000B800D2203208A000B20131083302031DB7
:100480004B2A2008B2002E30B800D2203208A0003B
:100490002030B20500303030B21E5B2AB212310873
:1004A000031DB2032008B2002D30B800D22032085C
:1004B000A000B2013030A0072008B800D22083107D
:1004C0003708BB003608BA003508B9003408B80050
:1004D000BF01BE01BD010A30BC004C212308B7009A
:1004E0002208B6002108B5002008B400B30B022A88
:1004F000FF2A2D308400000803198B2A0230A10046
:10050000A001A00B812AA10B802A9730A000A00B8C
:10051000872A800B7E2A082B03081F39830071303D
:1005200083168F000F080511831205151F138316FC
:100530001F109F101F119F1107308312990012285E
:10054000A701270DA000A00DFC30A0051F08F3395E
:1005500020049F002030A000A00BAC2AAF2A00008E
:100560009F149F18B12A83161E088312A5001E0827
:10057000A6002608AE002508AD0040282308BB00D1
:100580002208BA002108B9002008B8004030BF0096
:100590006530BE005030BD007630BC005D202308C1
:1005A000AB002208AA002108A9002008A800AD017C
:1005B0002D080420AD0AA000B800D22004302D027E
:1005C000031DD82A103084002608AE002508AD008F
:1005D000F4282030B800D2202D30B800D2202030AE
:1005E000B800D220893084002B08B0002A08AF0060
:1005F0002908AE002808AD000230B1009A290D305C
:10060000B800D2200A30B800D220FA30AD00792AE2
:04061000A12A6300B8
:02400E00C430BC
:00000001FF
;PIC12F683
;CRC=0476  CREATED="08-Apr-24 09:39"
